S0120000436F6E74726F6C6C65722E73726563EE
S113000045C0000060C000005EC000005CC000008D
S11300105AC0000058C0000056C0000054C0000080
S113002052C0000050C000004EC000004CC0000090
S11300308DC2000048C0000046C0000044C000005B
S113004042C0000040C0000097C100003CC0000056
S11300503AC00000B9C1000036C0000034C000003E
S113006032C0000030C000002EC000002CC00000D0
S11300702AC0000028C0000056C1000024C00000AF
S113008022C0000020C000001EC0000011241FBEBA
S1130090CFEFD0E1DEBFCDBF11E0A0E0B1E0E6EAF2
S11300A0FBE000E00BBF02C007900D92AE31B10738
S11300B0D9F721E0AEE1B1E001C01D92A43BB20743
S11300C0E1F784D26EC59CCF811526E9920759F0D9
S11300D0811522EC920721F08038954249F406C03C
S11300E087E089B905C087E189B902C08FE589B97C
S11300F088E18AB986E08093950008958AB1806882
S11301008AB9789408955D9BFECF8CB90895EF92D7
S1130110FF920F931F93CF93DF937C018B01C0E079
S1130120D0E006C0F701EC0FFD1F8081ECDF2196C3
S1130130C017D107BCF3DF91CF911F910F91FF90AE
S1130140EF900895811526E9920761F0811522EC5C
S1130150920721F08038954261F408C087E08093CB
S1130160990007C087E18093990003C08FE58093CD
S1130170990088E180939A0086E080939D00089519
S1130180EAE9F0E080818068808378940895909112
S11301909B0095FFFCCF80939C000895EF92FF9203
S11301A00F931F93CF93DF937C018B01C0E0D0E0CA
S11301B006C0F701EC0FFD1F8081E9DF2196C0170F
S11301C0D107BCF3DF91CF911F910F91FF90EF9076
S11301D008958FEF82B983B18F7E83B908958EB568
S11301E088608EBD85EE90E09BBD8ABD8EB5836030
S11301F08EBD87B7806187BF7894089517B816B805
S113020087B1806487B986B1836A86B97894089582
S113021097B1907E97B997B18770982B97B986B1AB
S1130220806486B9349BFECF24B185B190E0982FC9
S11302308827822B0895E5E6F0E09081946090830E
S113024090819D7F908390819160908396EF9A95A1
S1130250F1F78BBB86EF8A95F1F780818E7F8083DF
S11302600895E5E6F0E090819B7F908390819D7FE7
S1130270908390819160908396EF9A95F1F78BBB70
S113028086EF8A95F1F780818E7F8083089506C07A
S1130290E6E6FEE03197F1F70000892F9FEF980F13
S11302A08111F6CF0895CF93C82F81E0F0DF8C2F12
S11302B0C2DFCF910895CF93DF93EC0102C0F3DF47
S11302C0219688818111FBCFDF91CF91089590E42D
S11302D0899F600D1124862F8068C3CF089581E023
S11302E0C0DF82E0D4CF08958FEF8ABBE4E6F0E06C
S11302F080818F6080830895F7DF88E3B2DF84E034
S1130300C6DF88E3AEDF84E0C2DF88E3AADF84E0EF
S1130310BEDF8EE0A6DF82E0BADF86E0A2DF82E005
S1130320B6DFDDCF08951F920F920FB60F921124FE
S11303300BB60F922F933F934F935F936F937F93DB
S11303408F939F93AF93BF93EF93FF9380919C0000
S1130350DADEFF91EF91BF91AF919F918F917F91E1
S11303606F915F914F913F912F910F900BBE0F9022
S11303700FBE0F901F9018951F920F920FB60F92F9
S113038011240BB60F922F933F934F935F936F9368
S11303907F938F939F93AF93BF93EF93FF938CB10E
S11303A0F6DEFF91EF91BF91AF919F918F917F9175
S11303B06F915F914F913F912F910F900BBE0F90D2
S11303C00FBE0F901F9018951F920F920FB60F92A9
S11303D011248F939F9384B195B1909322018093BC
S11303E021019F918F910F900FBE0F901F90189530
S11303F00F931F93CF93DF93CDB7DEB72B970FB631
S1130400F894DEBF0FBECDBF8E010F5F1F4F8BE090
S1130410F80111928A95E9F78AEA898380911F018C
S113042090912001330F220B322F2A83330F220B9A
S1130430322F2B839C838D838091AF019091B001E7
S1130440330F220B322F2E83330F220B322F2F83A5
S11304509887898780911E018A878FEA8B876BE052
S113046070E0C80154DE6BE070E0C80197DE2B96A3
S11304700FB6F894DEBF0FBECDBFDF91CF911F91B1
S11304800F910895CF93DF938091B0018F93809162
S1130490AF018F938BE091E09F938F93C7E8D1E0F6
S11304A0DF93CF93A3D060E080E011DFCE0103DFC0
S11304B0809120018F9380911F018F9384E191E0BB
S11304C09F938F93DF93CF9391D060E081E0FFDE21
S11304D0CE01F1DE8DB79EB70C960FB6F8949EBF91
S11304E00FBE8DBFDF91CF91089580E091DE909390
S11304F0B0018093AF0181E08BDE90932001809363
S11305001F012091AF013091B0011216130634F08F
S113051021E030E03093B0012093AF0118161906A2
S113052034F081E090E09093200180931F01AACFE2
S113053008958FEE81BB089580B38F3E21F48EEA37
S113054080931E01089510921E0108951F920F9228
S11305500FB60F9211240BB60F922F933F934F9324
S11305605F936F937F938F939F93AF93BF93EF9317
S1130570FF938091B2019091B30101969093B301DE
S11305808093B201B2DFD8DF8091B20180FF30DF07
S11305908091B2019091B3018436910524F01092B8
S11305A0B3011092B201FF91EF91BF91AF919F916E
S11305B08F917F916F915F914F913F912F910F9008
S11305C00BBE0F900FBE0F901F9018958FEF87BB37
S11305D080E092ECB7DD80E092EC76DD8FDDD0DD5B
S11305E0FEDDF7DD0BDE88DEA4DFFFCF0F931F9364
S11305F0CF93DF93CDB7DEB72E970FB6F894DEBF57
S11306000FBECDBF0D891E8986E08C831A830983B2
S11306108FEF9FE79E838D83AE01475E5F4F6F89A7
S1130620788DCE01019610D0EF81F885E00FF11F8F
S113063010822E960FB6F894DEBF0FBECDBFDF91A9
S1130640CF911F910F9108952F923F924F925F92F5
S11306506F927F928F929F92AF92BF92CF92DF92CE
S1130660EF92FF920F931F93CF93DF93CDB7DEB733
S11306702B970FB6F894DEBF0FBECDBF6C017B0184
S11306808A01FC0117821682838181FFBFC1CE01DA
S113069001963C01F6019381F70193FD859193FF47
S11306A081917F01882309F4ADC1853239F493FD2A
S11306B0859193FF81917F01853221F4B60190E009
S11306C0D6D1E8CF912C212C312CFFE1F315D8F0B1
S11306D08B3279F038F4803279F08332A1F4232D0F
S11306E020611DC08D3261F0803369F4232D2160B7
S11306F016C0832D8260382EE32DE4603E2E2AC07E
S1130700F32DF8601DC037FC2DC020ED280F2A30D2
S113071040F08E32B9F436FC75C1232D2064322E9C
S113072019C036FE06C08AE0989E200D1124922E30
S113073011C0EAE02E9E200D1124222EF32DF0622A
S11307403F2E08C08C3621F4832D8068382E02C0D9
S1130750883641F4F70193FD859193FF81917F01E0
S11307608111B3CF982F9F7D9554933028F40C5F5B
S11307701F4F9FE399830DC0833631F0833771F0A7
S1130780833509F055C020C0F801808189830E5F4C
S11307901F4F88248394912C530112C02801F2E046
S11307A04F0E511CF801A080B18036FE03C0692DA4
S11307B070E002C06FEF7FEFC5014ED14C018201A2
S11307C0F32DFF773F2E15C0280122E0420E511C65
S11307D0F801A080B18036FE03C0692D70E002C02C
S11307E06FEF7FEFC5012DD14C01F32DF0683F2E43
S11307F0820133FC19C0822D90E088169906A0F47A
S1130800B60180E290E033D12A94F5CFF50137FCAC
S1130810859137FE81915F01B60190E028D12110C6
S11308202A9421E0821A91088114910479F7E1C095
S1130830843611F0893639F5F80137FE07C0608136
S11308407181828193810C5F1F4F08C06081718127
S1130850072E000C880B990B0E5F1F4FF32DFF76AC
S11308603F2E97FF09C090958095709561957F4FB5
S11308708F4F9F4FF0683F2E2AE030E0A30133D121
S1130880882E861844C0853731F4232D2F7EB22E4E
S11308902AE030E025C0932D997FB92E8F36C1F020
S11308A018F4883579F0AEC0803719F0883721F014
S11308B0A9C0E92FE061BE2EB4FE0DC0FB2DF4608B
S11308C0BF2E09C034FE0AC0292F2660B22E06C0EE
S11308D028E030E005C020E130E002C020E132E051
S11308E0F801B7FE07C060817181828193810C5F3A
S11308F01F4F06C06081718180E090E00E5F1F4F42
S1130900A301F1D0882E8618FB2DFF773F2E36FEEB
S11309100DC0232D2E7FA22E891458F434FE0BC053
S113092032FC09C0832D8E7EA82E05C0B82CA32CC2
S113093003C0B82C01C0B92CA4FE0FC0FE01E80D01
S1130940F11D8081803321F49A2D997EA92E09C04E
S1130950A2FE06C0B394B39404C08A2D867809F02D
S1130960B394A3FC10C0A0FE06C0B21480F4280CFB
S1130970922C9B180DC0B21458F4B60180E290E09A
S113098076D0B394F8CFB21418F42B1802C0982C74
S1130990212CA4FE0FC0B60180E390E068D0A2FE33
S11309A016C0A1FC03C088E790E002C088E590E08F
S11309B0B6010CC08A2D867851F0A1FE02C08BE2EC
S11309C001C080E2A7FC8DE2B60190E050D089140A
S11309D030F4B60180E390E04AD09A94F8CF8A9438
S11309E0F301E80DF11D8081B60190E040D0811043
S11309F0F6CF222009F44ECEB60180E290E037D043
S1130A002A94F7CFF6018681978102C08FEF9FEF7A
S1130A102B960FB6F894DEBF0FBECDBFDF91CF91FA
S1130A201F910F91FF90EF90DF90CF90BF90AF9008
S1130A309F908F907F906F905F904F903F902F90FA
S1130A400895FC010590615070400110D8F780951D
S1130A5090958E0F9F1F0895FC0161507040019086
S1130A600110D8F7809590958E0F9F1F08950F93CE
S1130A701F93CF93DF93FB01238121FD03C08FEFED
S1130A809FEF2CC022FF16C04681578124813581F7
S1130A904217530744F4A081B1819D012F5F3F4F5A
S1130AA0318320838C93268137812F5F3F4F378397
S1130AB0268314C08B01EC01FB010084F185E02D39
S1130AC00995892BE1F6D80116968D919C9117977B
S1130AD0019617969C938E931697CE01DF91CF9132
S1130AE01F910F910895FA01AA27283051F120315E
S1130AF081F1E8946F936E7F6E5F7F4F8F4F9F4FAE
S1130B00AF4FB1E03ED0B4E03CD0670F781F891FEF
S1130B109A1FA11D680F791F8A1F911DA11D6A0FBD
S1130B20711D811D911DA11D20D009F468943F9170
S1130B302AE0269F11243019305D3193DEF6CF016F
S1130B400895462F4770405D4193B3E00FD0C9F735
S1130B50F6CF462F4F70405D4A3318F0495D31FDA2
S1130B604052419302D0A9F7EACFB4E0A6959795F5
S1130B70879577956795BA95C9F7009761057105CB
S1130B8008959B01AC010A2E069457954795379515
S1130B902795BA95C9F7620F731F841F951FA01D6F
S1090BA00895F894FFCF54
S1130BA641542B42494E443F0D0A00583A20253001
S1110BB634642000593A2025303464200000B5
S9030000FC
