:10000000C6C00000E2C00000E0C00000DEC000008A
:10001000DCC00000DAC00000D8C00000D6C000007C
:10002000D4C00000D2C00000D0C00000CEC000008C
:100030000BC40000CAC00000C8C00000C6C0000059
:10004000C4C00000C2C00000CFC20000BEC000009B
:10005000BCC00000BAC00000B8C00000B6C00000BC
:10006000B4C00000B2C00000B0C00000AEC00000CC
:10007000ACC00000AAC00000FBC10000A6C0000088
:10008000A4C00000A2C00000A0C000006E616E000D
:10009000696E660000407A10F35A00A0724E18098B
:1000A0000010A5D4E80000E87648170000E40B54DF
:1000B000020000CA9A3B000000E1F50500008096AE
:1000C0009800000040420F000000A08601000000E0
:1000D000102700000000E80300000000640000009A
:1000E00000000A00000000000100000000002C7663
:1000F000D888DC674F0823DFC1DFAE59E1B1B7967E
:10010000E5E3E453C63AE651997696E8E6C28426DA
:10011000EB898C9B62ED407C6FFCEFBC9C9F40F2B6
:10012000BAA56FA5F490055A2AF75C936B6CF96732
:100130006DC11BFCE0E40D47FEF520E6B500D0EDF7
:10014000902E0300943577050080841E080000205F
:100150004E0A000000C80C333333330F986E1283FD
:100160001141EF8D2114893BE65516CFFEE6DB18D1
:10017000D1844B381BF77C1D901DA4BBE424203296
:1001800084725E228100C9F124ECA1E53D2711248F
:100190001FBECFEFD0E1DEBFCDBF11E0A0E0B1E0E8
:1001A000EEE3F7E100E00BBF02C007900D92A2332F
:1001B000B107D9F721E0A2E3B1E001C01D92A13B54
:1001C000B207E1F7BCD30C949D0B1ACF811526E939
:1001D000920759F0811522EC920721F08038954260
:1001E00049F406C087E089B905C087E189B902C032
:1001F0008FE589B988E18AB986E0809395000895F2
:100200008AB180688AB9789408955D9BFECF8CB9D5
:100210000895811526E9920761F0811522EC920775
:1002200021F08038954261F408C087E080939900FE
:1002300007C087E18093990003C08FE58093990000
:1002400088E180939A0086E080939D000895EAE912
:10025000F0E08081806880837894089590919B007D
:1002600095FFFCCF80939C000895CF93DF93EC0122
:1002700002C02196F3DF88818111FBCFDF91CF91FE
:1002800008958EB588608EBD85EE90E09BBD8ABDD9
:100290008EB583608EBD87B7806187BF78940895DF
:1002A00088E382B9ABE8B0E08C9183608C93EAE894
:1002B000F0E08081886080838C91886A8C93808153
:1002C00084608083109287001092860010928500CF
:1002D0001092840010928300109282007894089506
:1002E00090938500809384007093830060938200D4
:1002F00008958AE08093700010927100109274004B
:10030000089594EA90937400909174009923E4F70F
:1003100090917100987F9830B9F7982F9E7F9093B5
:10032000730094E890937400909174009923E4F71B
:1003300090917100987F9831B9F76093730094E8B9
:1003400090937400909174009923E4F79091710058
:10035000987F9832B9F794EA909374009091740062
:100360009923E4F790917100987F9031B9F78160FB
:100370008093730084E880937400809174008823D4
:10038000E4F780917100887F8034B9F784E8809326
:100390007400809174008823E4F780917100887F55
:1003A0008835B9F78091730094E9909374000895AB
:1003B00094EA90937400909174009923E4F79091DB
:1003C0007100987F9830B9F78E7F8093730084E82E
:1003D00080937400809174008823E4F78091710009
:1003E000887F8831B9F720E030E014C0FB01E20FCC
:1003F000F31F80818093730084E880937400809160
:1004000074008823E4F780917100887F8832B9F7FF
:100410002F5F3F4F241735074CF384E98093740016
:100420000895CF93DF9300D0CDB7DEB71A8219823B
:100430006A8342E050E0BE016F5F7F4FB9DF0F90EB
:100440000F90DF91CF910895CF93DF93D82F62E083
:1004500058DFC82F63E08D2F54DF2C2F30E0322F70
:100460002227A901480F511DCA01DF91CF9108959C
:100470001F920F920FB60F9211240BB60F922F936B
:100480003F934F935F936F937F938F939F93AF931C
:10049000BF93CF93EF93FF93C0919C008C2FDEDE30
:1004A0008C2FB3DEFF91EF91CF91BF91AF919F91D0
:1004B0008F917F916F915F914F913F912F910F900D
:1004C0000BBE0F900FBE0F901F90189585B38174CF
:1004D00085BB85B3816485BB089585B3827885BB70
:1004E00085B3826885BB089585B3817885BB85B364
:1004F000816885BB089585B3827485BB85B38264AA
:1005000085BB0895EF92FF920F931F93CF93DF93D4
:10051000EC018B0189559240873A914040F4CB0120
:1005200081599140873C910510F4DEDF0CC0CE016B
:1005300001978F38914038F4C80181599140873C28
:10054000910508F4D8DFCE01815E91408732910594
:1005500040F49801215031092F38314010F4B6DFB2
:1005600009C0879738F4C80189559240873A91406D
:1005700008F4B3DF7E0149E0E41A42E0F40A87EFB1
:10058000E81681E0F80638F4C80101978F389140E9
:1005900010F49CDF0BC0CE0101978F3D914030F4E9
:1005A000C80101978F38914008F490DF47EFE416B7
:1005B00041E0F40640F4C80189559240873A9140E1
:1005C00010F48BDF0AC02197CF3DD14030F409559C
:1005D0001240073A114008F480DFDF91CF911F915C
:1005E0000F91FF90EF9008951F920F920FB60F9208
:1005F00011240BB60F92CF92DF92EF92FF920F93DE
:100600001F932F933F934F935F936F937F938F939A
:100610009F93AF93BF93EF93FF93CF93DF93CDB7A8
:10062000DEB76497DEBFCDBF8CB18A3A31F421E0EA
:1006300030E030933701209336012091360130911C
:10064000370121303105A1F4E091380191E09E0F8E
:1006500090933801F0E0E75CFE4F80839091420177
:100660009E3A31F421E030E030933501209334019B
:100670008F3A09F056C0109238011092370110924B
:100680003601E9E3F1E0E180F12CFF24EE248281E0
:1006900090E099278827E82AF92A838190E0982F0B
:1006A0008827E82AF92A8481E82A058110E01127A1
:1006B0000027868190E099278827082B192B8781AE
:1006C00090E0982F8827082B192B8085082B809184
:1006D00047018F93809146018F93809145018F93BD
:1006E000809144018F93809135018F9380913401E3
:1006F0008F931F930F93FF92EF928BE091E09F9364
:100700008F93CE0101966C019F938F938AD7C60178
:10071000ACDDB701C801F6DE0FB6F894DEBF0FBE40
:10072000CDBF64960FB6F894DEBF0FBECDBFDF918C
:10073000CF91FF91EF91BF91AF919F918F917F9159
:100740006F915F914F913F912F911F910F91FF906A
:10075000EF90DF90CF900F900BBE0F900FBE0F90D9
:100760001F90189583EC84BB08958FEF87BB089585
:1007700088B3806888BB089588B38F7788BB089555
:100780008091340190913501019741F4F5DF81E0CA
:1007900090E090933301809332012EC0809132011A
:1007A000909133018130910581F488E590E0909338
:1007B00087008093860080913201909133010196E9
:1007C000909333018093320117C0029781F48BE13B
:1007D00090E0909387008093860080913201909101
:1007E00033010196909333018093320105C0C0DF3D
:1007F000109233011092320110923501109234019F
:10080000089595958795E5E6F0E0208120612083A5
:1008100020E030E005C045E04A95F1F72F5F3F4FFB
:1008200028173907C4F3E5E6F0E020812F7E208306
:1008300020E030E005C045E04A95F1F72F5F3F4FDB
:1008400028173907C4F308951F920F920FB60F921D
:1008500011240BB60F922F933F934F935F936F9397
:100860007F938F939F93AF93BF93EF93FF93809169
:10087000AF019091B00101969093B0018093AF01C8
:100880006AE070E07DD5892B91F46091440170910C
:100890004501809146019091470120E030E040EF12
:1008A00051E464D088231CF488EE97E0AADF80919D
:1008B000AF019091B00164E670E062D5892B01F53B
:1008C00062E584EEAEDD84EEBFDDBC0180E090E049
:1008D000B9D020E030E44CE156E44CD020E030E0E8
:1008E0004AEA53E461D120E030E040E05FE35CD1CC
:1008F00060934401709345018093460190934701B2
:100900008091AF019091B001843F91402CF038DF8D
:100910001092B0011092AF01FF91EF91BF91AF9192
:100920009F918F917F916F915F914F913F912F9107
:100930000F900BBE0F900FBE0F901F9018958FEF6A
:100940008093640080E092EC64DC80E092EC3EDC1A
:1009500057DC7DDC96DCA4DC05DFCBDC06DFB6DD16
:100960006FEF73E080E092E0BBDCF9CFA8D008F431
:1009700081E008950CD0DEC0D6D040F0CDD030F06C
:1009800021F45F3F19F0BFC0511108C1C2C0E3D0CC
:1009900098F39923C9F35523B1F3951B550BBB2746
:1009A000AA2762177307840738F09F5F5F4F220FF3
:1009B000331F441FAA1FA9F333D00E2E3AF0E0E8EC
:1009C00030D091505040E695001CCAF729D0FE2F38
:1009D00027D0660F771F881FBB1F261737074807CA
:1009E000AB07B0E809F0BB0B802DBF01FF27935880
:1009F0005F4F2AF09E3F510568F085C0CFC05F3F32
:100A0000ECF3983EDCF3869577956795B795F79567
:100A10009F5FC9F7880F911D9695879597F908955F
:100A2000E1E0660F771F881FBB1F621773078407FB
:100A3000BA0720F0621B730B840BBA0BEE1F88F70A
:100A4000E0950895E89409C097FB3EF49095809551
:100A5000709561957F4F8F4F9F4F9923A9F0F92F84
:100A600096E9BB279395F695879577956795B79502
:100A7000F111F8CFFAF4BB0F11F460FF1BC06F5FE8
:100A80007F4F8F4F9F4F16C0882311F096E911C0FA
:100A9000772321F09EE8872F762F05C0662371F01B
:100AA00096E8862F70E060E02AF09A95660F771F2F
:100AB000881FDAF7880F9695879597F90895990F0B
:100AC0000008550FAA0BE0E8FEEF16161706E80718
:100AD000F907C0F012161306E407F50798F0621B39
:100AE000730B840B950B39F40A2661F0232B242B0E
:100AF000252B21F408950A2609F4A140A6958FEF2D
:100B0000811D811D089597F99F6780E870E060E07E
:100B100008959FEF80EC089500240A941616170696
:100B200018060906089500240A94121613061406DE
:100B300005060895092E0394000C11F4882352F041
:100B4000BB0F40F4BF2B11F460FF04C06F5F7F4FF9
:100B50008F4F9F4F089557FD9058440F551F59F0E0
:100B60005F3F71F04795880F97FB991F61F09F3F9A
:100B700079F087950895121613061406551FF2CFC3
:100B80004695F1DF08C0161617061806991FF1CF13
:100B900086957105610508940895E894BB2766273A
:100BA0007727CB0197F908950BD0C4CFB5DF28F094
:100BB000BADF18F0952309F0A6CFABCF1124EECF02
:100BC000CADFA0F3959FD1F3950F50E0551F629FA8
:100BD000F001729FBB27F00DB11D639FAA27F00D96
:100BE000B11DAA1F649F6627B00DA11D661F829FBD
:100BF0002227B00DA11D621F739FB00DA11D621FA2
:100C0000839FA00D611D221F749F3327A00D611DBE
:100C1000231F849F600D211D822F762F6A2F1124A0
:100C20009F5750408AF0E1F088234AF0EE0FFF1FF3
:100C3000BB1F661F771F881F91505040A9F79E3F2A
:100C4000510570F060CFAACF5F3FECF3983EDCF324
:100C5000869577956795B795F795E7959F5FC1F767
:100C6000FE2B880F911D9695879597F908952F92E1
:100C70003F924F925F926F927F928F929F92AF922C
:100C8000BF92CF92DF92EF92FF920F931F93CF9379
:100C9000DF93CDB7DEB760970FB6F894DEBF0FBE17
:100CA000CDBF7C011B016A01FC0117821682838182
:100CB00081FF2AC39E012F5F3F4F3901F7019381C6
:100CC000F10193FD859193FF81911F01882309F420
:100CD00017C3853239F493FD859193FF81911F01EC
:100CE000853231F4B70190E060D456016501E6CF5A
:100CF00010E0512C912CFFE1F915D8F08B3279F0EE
:100D000038F4803279F08332A1F4F92DF0612EC0ED
:100D10008D3261F0803369F4292D21602DC0392D89
:100D20003260932E892D8460982E2AC0E92DE860C8
:100D300015C097FC2DC020ED280F2A3088F496FEB0
:100D400006C03AE0139F200D1124122F19C08AE02B
:100D5000589E200D1124522EE92DE0629E2E10C0C7
:100D60008E3231F496FCCCC2F92DF0649F2E08C06F
:100D70008C3621F4292D2068922E02C0883641F449
:100D8000F10193FD859193FF81911F018111B3CFF3
:100D90009BEB980F933020F4992D9061805E07C0F3
:100DA0009BE9980F933008F059C1992D9F7E96FFCB
:100DB00016E09F73992E853619F49064992E08C019
:100DC000863621F4392F3068932E02C0111111504C
:100DD00097FE07C01C3350F444244394410E27E08F
:100DE0000BC0183038F027E017E005C027E09CE37F
:100DF000492E02C0212F412C560184E0A80EB11CBF
:100E0000F6016081718182819381042DA301DFD27B
:100E10006C01F981FC87F0FF02C0F3FF06C091FC72
:100E200006C092FE06C000E205C00DE203C00BE260
:100E300001C000E08C858C7019F0011143C280C2A2
:100E400097FE10C04C0CFC85F4FF04C08A818133EE
:100E500009F44A94141474F528E0241578F588E010
:100E6000482E2CC096FC2AC0812F90E08C159D0541
:100E70009CF03CEFC3163FEFD30674F0892D8068D9
:100E8000982E0AC0E2E0F0E0EC0FFD1FE10FF11D2B
:100E90008081803319F411501111F4CF97FE0EC0E8
:100EA00044244394410E812F90E0C816D9062CF4B7
:100EB0001C1904C04424439401C010E097FE06C0EE
:100EC0001C141D0434F4C601019605C085E090E0B1
:100ED00002C081E090E001110196112331F0212F31
:100EE00030E02F5F3F4F820F931F252D30E0821798
:100EF000930714F4581A01C0512C892D897041F4BC
:100F0000552031F0B70180E290E04FD35A94F8CFEA
:100F1000002321F0B701802F90E047D393FC08C055
:100F2000552031F0B70180E390E03FD35A94F8CFD9
:100F300097FE4AC04601D7FE02C0812C912CC60103
:100F400088199909F301E80FF91FFE87ED879601CB
:100F500024193109388B2F87012F10E01195019545
:100F600011093FEF8316930621F4B7018EE290E05A
:100F70001CD3C814D9044CF08F859889881599051D
:100F800024F4ED85FE85818101C080E3F1E08F1AB4
:100F900091082D853E852F5F3F4F3E872D87801618
:100FA000910624F0B70190E000D3DBCFC814D90438
:100FB00041F49A81963320F4953319F43C8534FF3B
:100FC00081E3B70190E048C08A81813319F09C85A4
:100FD0009F7E9C87B70190E0E8D2111105C094FC78
:100FE00016C085E690E015C0B7018EE290E0DDD234
:100FF0001E5F82E001E0080FF301E80FF11D808120
:10100000B70190E0D2D2802F0113F4CFE8CF85E46E
:1010100090E0B701CAD2D7FC06C0C114D10441F494
:10102000EC85E4FF05C0D194C194D1088DE201C0E4
:101030008BE2B70190E0B9D280E32AE0C216D10476
:101040002CF08F5FFAE0CF1AD108F7CFB70190E00C
:10105000ACD2B701C601C096A8D249C1833631F0DF
:10106000833779F0833509F052C01FC0560132E052
:10107000A30EB11CF6018081898301E010E06301B9
:1010800011C05601F2E0AF0EB11CF601C080D18054
:1010900096FE03C0612F70E002C06FEF7FEFC601C4
:1010A00079D28C01F92DFF7713C0560122E0A20EF0
:1010B000B11CF601C080D18096FE03C0612F70E0A4
:1010C00002C06FEF7FEFC6015AD28C01F92DF06894
:1010D0009F2EF3FD18C0852D90E00817190798F48E
:1010E000B70180E290E061D25A94F5CFF60197FC07
:1010F000859197FE81916F01B70190E056D2511012
:101100005A94015011090115110581F7F0C0843678
:1011100011F0893659F5560197FE09C024E0A20E58
:10112000B11CF60160817181828193810AC0F2E075
:10113000AF0EB11CF60160817181072E000C880B87
:10114000990BF92DFF769F2E97FF09C090958095FA
:10115000709561957F4F8F4F9F4FF0689F2E2AE0CB
:1011600030E0A3018CD2C82EC6183EC0092D8537A9
:1011700021F40F7E2AE030E01DC0097F8F3691F008
:1011800018F4883559F0BCC0803719F0883711F051
:10119000B7C0006104FF09C0046007C094FE08C026
:1011A000066006C028E030E005C020E130E002C063
:1011B00020E132E0560107FF09C084E0A80EB11C0F
:1011C000F601608171818281938108C0F2E0AF0EE7
:1011D000B11CF6016081718180E090E0A3014FD2E3
:1011E000C82EC6180F77902E96FE0BC0092D0E7FC5
:1011F000C11650F494FE0AC092FC08C0092D0E7E60
:1012000005C0DC2C092D03C0DC2C01C0D12E04FF4D
:101210000DC0FE01EC0DF11D8081803311F4097EBB
:1012200009C002FF06C0D394D39404C0802F8678EF
:1012300009F0D39403FD10C000FF06C01C2DD51487
:1012400078F4150D1D190CC0D51450F4B70180E2C7
:1012500090E0ABD1D394F8CFD51410F45D1801C051
:10126000512C04FF0FC0B70180E390E09ED102FF34
:1012700016C001FD03C088E790E002C088E590E059
:10128000B7010CC0802F867851F001FF02C08BE2BD
:1012900001C080E207FD8DE2B70190E086D1C11662
:1012A00030F4B70180E390E080D11150F8CFCA94B8
:1012B000F301EC0DF11D8081B70190E076D1C110F2
:1012C000F6CF15C0F4E0F51550F584E0581A93FEFA
:1012D0001EC0011125C02C8523FF27C00CE810E09B
:1012E000392D3071932EF8018491811121C0552040
:1012F00009F4FCCCB70180E290E057D15A94F7CFC3
:10130000F7018681978123C08FEF9FEF20C0B7013F
:1013100080E290E04AD15A945110F9CFDACF512CA3
:10132000B701802F90E041D1D6CF00E910E0D8CFAF
:1013300091108052B70190E038D10F5F1F4FD3CF8B
:1013400023E0251510F483E0C1CF512CC4CF609663
:101350000FB6F894DEBF0FBECDBFDF91CF911F91C6
:101360000F91FF90EF90DF90CF90BF90AF909F9044
:101370008F907F906F905F904F903F902F90089547
:1013800097FB072E16F4009406D077FD08D00BD0FB
:1013900007FC05D03EF4909581959F4F0895709578
:1013A00061957F4F0895AA1BBB1B51E107C0AA1F7F
:1013B000BB1FA617B70710F0A61BB70B881F991FF6
:1013C0005A95A9F780959095BC01CD0108952830D4
:1013D00008F027E03327DA01990F311D87FD91606E
:1013E00000966105710539F432602E5F3D9330E35C
:1013F0002A95E1F708959F3F30F080387105610527
:1014000009F03C5F3C5F3D93913008F08068911D8E
:10141000DF93CF931F930F93FF92EF92192F987F33
:101420009695E92F96959695E90FFF27E251FF4F84
:1014300099273327EE24FF24A701E701059008949C
:10144000079428F4360FE71EF81E491F511D660F3A
:10145000771F881F991F0694A1F70590079428F419
:10146000E70EF81E491F561FC11D770F881F991FD1
:10147000661F0694A1F70590079428F4F80E491FFB
:10148000561FC71FD11D880F991F661F771F06940F
:10149000A1F70590079420F4490F561FC71FD81FC6
:1014A000990F661F771F881F0694A9F784911095DE
:1014B000177041F0D695C79557954795F794E794DF
:1014C0001A95C1F7E4E9F0E068941590159135910B
:1014D0006591959105907FE27395E118F10A430BB0
:1014E000560BC90BD009C0F7E10CF11E431F561F64
:1014F000C91FD01D7EF4703311F48A95E6CFE894AD
:10150000015030F0080F0AF40027021708F4202FCA
:101510002395022F7A3328F079E37D932A95E9F712
:1015200010C07D932A9589F606949795679537950F
:1015300017951794E118F10A430B560BC90BD00904
:1015400098F023957E9173957A3308F070E37C933D
:101550002013B8F77E9170617D9330F0839571E32D
:101560007D9370E32A95E1F71124EF90FF900F919E
:101570001F91CF91DF91992787FD90950895FC01E8
:101580000590615070400110D8F7809590958E0FAE
:101590009F1F0895FC016150704001900110D8F721
:1015A000809590958E0F9F1F08950F931F93CF9353
:1015B000DF93FB01238121FD03C08FEF9FEF2CC040
:1015C00022FF16C046815781248135814217530777
:1015D00044F4A081B1819D012F5F3F4F318320836F
:1015E0008C93268137812F5F3F4F3783268314C02A
:1015F0008B01EC01FB010084F185E02D0995892B1D
:10160000E1F6D80116968D919C9117970196179641
:101610009C938E931697CE01DF91CF911F910F91DE
:1016200008950F931F93CF93DF93CDB7DEB72E9717
:101630000FB6F894DEBF0FBECDBF0D891E8986E0C0
:101640008C831A8309838FEF9FE79E838D83AE017E
:10165000475E5F4F6F89788DCE01019608DBEF8181
:10166000F885E00FF11F10822E960FB6F894DEBFBA
:101670000FBECDBFDF91CF911F910F910895FA0159
:10168000AA27283051F1203181F1E8946F936E7FC1
:101690006E5F7F4F8F4F9F4FAF4FB1E03ED0B4E0B2
:1016A0003CD0670F781F891F9A1FA11D680F791FF3
:1016B0008A1F911DA11D6A0F711D811D911DA11D04
:1016C00020D009F468943F912AE0269F1124301914
:1016D000305D3193DEF6CF010895462F4770405DAF
:1016E0004193B3E00FD0C9F7F6CF462F4F70405D5E
:1016F0004A3318F0495D31FD4052419302D0A9F7B9
:10170000EACFB4E0A6959795879577956795BA95B2
:10171000C9F700976105710508959B01AC010A2E78
:1017200006945795479537952795BA95C9F7620F4F
:0E173000731F841F951FA01D0895F894FFCF0E
:10173E0041542B42494E443F0D0A00593A20253060
:10174E00346420583A2025303464205A3A2025300B
:10175E0034642053524630323A20252E3166636D62
:02176E00000079
:00000001FF
